{
  "address": "0xCeeF0be32E21205b14a9ABa2A23A54248556D3a7",
  "abi": [
    {
      "inputs": [
        {
          "internalType": "address",
          "name": "_endpoint",
          "type": "address"
        },
        {
          "internalType": "address",
          "name": "_delegate",
          "type": "address"
        }
      ],
      "stateMutability": "nonpayable",
      "type": "constructor"
    },
    {
      "inputs": [
        {
          "internalType": "address",
          "name": "target",
          "type": "address"
        }
      ],
      "name": "AddressEmptyCode",
      "type": "error"
    },
    {
      "inputs": [
        {
          "internalType": "address",
          "name": "account",
          "type": "address"
        }
      ],
      "name": "AddressInsufficientBalance",
      "type": "error"
    },
    {
      "inputs": [],
      "name": "FailedInnerCall",
      "type": "error"
    },
    {
      "inputs": [],
      "name": "InvalidDelegate",
      "type": "error"
    },
    {
      "inputs": [],
      "name": "InvalidEndpointCall",
      "type": "error"
    },
    {
      "inputs": [],
      "name": "LzTokenUnavailable",
      "type": "error"
    },
    {
      "inputs": [
        {
          "internalType": "uint32",
          "name": "eid",
          "type": "uint32"
        }
      ],
      "name": "NoPeer",
      "type": "error"
    },
    {
      "inputs": [
        {
          "internalType": "uint256",
          "name": "msgValue",
          "type": "uint256"
        }
      ],
      "name": "NotEnoughNative",
      "type": "error"
    },
    {
      "inputs": [
        {
          "internalType": "uint32",
          "name": "eid",
          "type": "uint32"
        },
        {
          "internalType": "bytes32",
          "name": "sender",
          "type": "bytes32"
        }
      ],
      "name": "OnlyPeer",
      "type": "error"
    },
    {
      "inputs": [
        {
          "internalType": "address",
          "name": "owner",
          "type": "address"
        }
      ],
      "name": "OwnableInvalidOwner",
      "type": "error"
    },
    {
      "inputs": [
        {
          "internalType": "address",
          "name": "account",
          "type": "address"
        }
      ],
      "name": "OwnableUnauthorizedAccount",
      "type": "error"
    },
    {
      "inputs": [
        {
          "internalType": "address",
          "name": "token",
          "type": "address"
        }
      ],
      "name": "SafeERC20FailedOperation",
      "type": "error"
    },
    {
      "anonymous": false,
      "inputs": [
        {
          "indexed": true,
          "internalType": "address",
          "name": "previousOwner",
          "type": "address"
        },
        {
          "indexed": true,
          "internalType": "address",
          "name": "newOwner",
          "type": "address"
        }
      ],
      "name": "OwnershipTransferred",
      "type": "event"
    },
    {
      "anonymous": false,
      "inputs": [
        {
          "indexed": false,
          "internalType": "uint32",
          "name": "eid",
          "type": "uint32"
        },
        {
          "indexed": false,
          "internalType": "bytes32",
          "name": "peer",
          "type": "bytes32"
        }
      ],
      "name": "PeerSet",
      "type": "event"
    },
    {
      "inputs": [
        {
          "internalType": "uint32",
          "name": "_dstEid",
          "type": "uint32"
        },
        {
          "components": [
            {
              "internalType": "address",
              "name": "sender",
              "type": "address"
            },
            {
              "internalType": "uint256",
              "name": "nonce",
              "type": "uint256"
            },
            {
              "internalType": "bytes",
              "name": "initCode",
              "type": "bytes"
            },
            {
              "internalType": "bytes",
              "name": "callData",
              "type": "bytes"
            },
            {
              "internalType": "uint256",
              "name": "callGasLimit",
              "type": "uint256"
            },
            {
              "internalType": "uint256",
              "name": "verificationGasLimit",
              "type": "uint256"
            },
            {
              "internalType": "uint256",
              "name": "preVerificationGas",
              "type": "uint256"
            },
            {
              "internalType": "uint256",
              "name": "maxFeePerGas",
              "type": "uint256"
            },
            {
              "internalType": "uint256",
              "name": "maxPriorityFeePerGas",
              "type": "uint256"
            },
            {
              "internalType": "bytes",
              "name": "paymasterAndData",
              "type": "bytes"
            },
            {
              "internalType": "bytes",
              "name": "signature",
              "type": "bytes"
            }
          ],
          "internalType": "struct IEntryPoint.UserOperation",
          "name": "_userOperation",
          "type": "tuple"
        },
        {
          "internalType": "bytes",
          "name": "_options",
          "type": "bytes"
        }
      ],
      "name": "castVote",
      "outputs": [
        {
          "components": [
            {
              "internalType": "bytes32",
              "name": "guid",
              "type": "bytes32"
            },
            {
              "internalType": "uint64",
              "name": "nonce",
              "type": "uint64"
            },
            {
              "components": [
                {
                  "internalType": "uint256",
                  "name": "nativeFee",
                  "type": "uint256"
                },
                {
                  "internalType": "uint256",
                  "name": "lzTokenFee",
                  "type": "uint256"
                }
              ],
              "internalType": "struct MessagingFee",
              "name": "fee",
              "type": "tuple"
            }
          ],
          "internalType": "struct MessagingReceipt",
          "name": "receipt",
          "type": "tuple"
        }
      ],
      "stateMutability": "payable",
      "type": "function"
    },
    {
      "inputs": [],
      "name": "endpoint",
      "outputs": [
        {
          "internalType": "contract ILayerZeroEndpointV2",
          "name": "",
          "type": "address"
        }
      ],
      "stateMutability": "view",
      "type": "function"
    },
    {
      "inputs": [],
      "name": "oAppVersion",
      "outputs": [
        {
          "internalType": "uint64",
          "name": "senderVersion",
          "type": "uint64"
        },
        {
          "internalType": "uint64",
          "name": "receiverVersion",
          "type": "uint64"
        }
      ],
      "stateMutability": "view",
      "type": "function"
    },
    {
      "inputs": [],
      "name": "owner",
      "outputs": [
        {
          "internalType": "address",
          "name": "",
          "type": "address"
        }
      ],
      "stateMutability": "view",
      "type": "function"
    },
    {
      "inputs": [
        {
          "internalType": "uint32",
          "name": "eid",
          "type": "uint32"
        }
      ],
      "name": "peers",
      "outputs": [
        {
          "internalType": "bytes32",
          "name": "peer",
          "type": "bytes32"
        }
      ],
      "stateMutability": "view",
      "type": "function"
    },
    {
      "inputs": [
        {
          "internalType": "uint32",
          "name": "_dstEid",
          "type": "uint32"
        },
        {
          "components": [
            {
              "internalType": "address",
              "name": "sender",
              "type": "address"
            },
            {
              "internalType": "uint256",
              "name": "nonce",
              "type": "uint256"
            },
            {
              "internalType": "bytes",
              "name": "initCode",
              "type": "bytes"
            },
            {
              "internalType": "bytes",
              "name": "callData",
              "type": "bytes"
            },
            {
              "internalType": "uint256",
              "name": "callGasLimit",
              "type": "uint256"
            },
            {
              "internalType": "uint256",
              "name": "verificationGasLimit",
              "type": "uint256"
            },
            {
              "internalType": "uint256",
              "name": "preVerificationGas",
              "type": "uint256"
            },
            {
              "internalType": "uint256",
              "name": "maxFeePerGas",
              "type": "uint256"
            },
            {
              "internalType": "uint256",
              "name": "maxPriorityFeePerGas",
              "type": "uint256"
            },
            {
              "internalType": "bytes",
              "name": "paymasterAndData",
              "type": "bytes"
            },
            {
              "internalType": "bytes",
              "name": "signature",
              "type": "bytes"
            }
          ],
          "internalType": "struct IEntryPoint.UserOperation",
          "name": "_userOperation",
          "type": "tuple"
        },
        {
          "internalType": "bytes",
          "name": "_options",
          "type": "bytes"
        },
        {
          "internalType": "bool",
          "name": "_payInLzToken",
          "type": "bool"
        }
      ],
      "name": "quote",
      "outputs": [
        {
          "components": [
            {
              "internalType": "uint256",
              "name": "nativeFee",
              "type": "uint256"
            },
            {
              "internalType": "uint256",
              "name": "lzTokenFee",
              "type": "uint256"
            }
          ],
          "internalType": "struct MessagingFee",
          "name": "fee",
          "type": "tuple"
        }
      ],
      "stateMutability": "view",
      "type": "function"
    },
    {
      "inputs": [],
      "name": "renounceOwnership",
      "outputs": [],
      "stateMutability": "nonpayable",
      "type": "function"
    },
    {
      "inputs": [
        {
          "internalType": "address",
          "name": "_delegate",
          "type": "address"
        }
      ],
      "name": "setDelegate",
      "outputs": [],
      "stateMutability": "nonpayable",
      "type": "function"
    },
    {
      "inputs": [
        {
          "internalType": "uint32",
          "name": "_eid",
          "type": "uint32"
        },
        {
          "internalType": "bytes32",
          "name": "_peer",
          "type": "bytes32"
        }
      ],
      "name": "setPeer",
      "outputs": [],
      "stateMutability": "nonpayable",
      "type": "function"
    },
    {
      "inputs": [
        {
          "internalType": "address",
          "name": "newOwner",
          "type": "address"
        }
      ],
      "name": "transferOwnership",
      "outputs": [],
      "stateMutability": "nonpayable",
      "type": "function"
    }
  ],
  "transactionHash": "0x9bded6777397e015b436f3d2e2c61ad78a49747120bfabc4a4092966fee00ba2",
  "args": [
    "0x1a44076050125825900e736c501f859c50fE728c",
    "0x6E9De1072B71C489ba2dFbfDF82F303EDA2281DC"
  ],
  "numDeployments": 2,
  "solcInputHash": "013b872819f7d0ca460ff33eebd20b41",
  "bytecode": "0x60a06040523480156200001157600080fd5b50604051620012a4380380620012a4833981016040819052620000349162000178565b8181806001600160a01b0381166200006657604051631e4fbdf760e01b81526000600482015260240160405180910390fd5b62000071816200010b565b506001600160a01b038083166080528116620000a057604051632d618d8160e21b815260040160405180910390fd5b60805160405163ca5eb5e160e01b81526001600160a01b0383811660048301529091169063ca5eb5e190602401600060405180830381600087803b158015620000e857600080fd5b505af1158015620000fd573d6000803e3d6000fd5b5050505050505050620001b0565b600080546001600160a01b038381166001600160a01b0319831681178455604051919092169283917f8be0079c531659141344cd1fd0a4f28419497f9722a3daafe3b4186f6b6457e09190a35050565b80516001600160a01b03811681146200017357600080fd5b919050565b600080604083850312156200018c57600080fd5b62000197836200015b565b9150620001a7602084016200015b565b90509250929050565b6080516110b6620001ee6000396000818160f10152818161030c015281816104c0015281816105be0152818161070401526107bd01526110b66000f3fe6080604052600436106100915760003560e01c80638da5cb5b116100595780638da5cb5b1461016d578063bb0b6a531461018b578063ca5eb5e1146101c6578063e308be3b146101e6578063f2fde38b1461020657600080fd5b806317442b70146100965780633400288b146100bd5780635e280f11146100df578063715018a61461012b5780637dff5eca14610140575b600080fd5b3480156100a257600080fd5b50604080516001815260006020820152015b60405180910390f35b3480156100c957600080fd5b506100dd6100d8366004610a37565b610226565b005b3480156100eb57600080fd5b506101137f000000000000000000000000000000000000000000000000000000000000000081565b6040516001600160a01b0390911681526020016100b4565b34801561013757600080fd5b506100dd610283565b34801561014c57600080fd5b5061016061015b366004610ada565b610297565b6040516100b49190610bb5565b34801561017957600080fd5b506000546001600160a01b0316610113565b34801561019757600080fd5b506101b86101a6366004610bcc565b60016020526000908152604090205481565b6040519081526020016100b4565b3480156101d257600080fd5b506100dd6101e1366004610c07565b6102e5565b6101f96101f4366004610c24565b61036b565b6040516100b49190610cc6565b34801561021257600080fd5b506100dd610221366004610c07565b6103ea565b61022e61042d565b63ffffffff8216600081815260016020908152604091829020849055815192835282018390527f238399d427b947898edb290f5ff0f9109849b1c3ba196a42e35f00c50a54b98b910160405180910390a15050565b61028b61042d565b610295600061045a565b565b60408051808201909152600080825260208201526000846040516020016102be9190610d7f565b60405160208183030381529060405290506102db868286866104aa565b9695505050505050565b6102ed61042d565b60405163ca5eb5e160e01b81526001600160a01b0382811660048301527f0000000000000000000000000000000000000000000000000000000000000000169063ca5eb5e190602401600060405180830381600087803b15801561035057600080fd5b505af1158015610364573d6000803e3d6000fd5b5050505050565b6103736109d6565b6000846040516020016103869190610d7f565b60408051601f198184030181526020601f870181900481028401810190925285835292506102db91889184919088908890819084018382808284376000920182905250604080518082019091523481526020810191909152925033915061058b9050565b6103f261042d565b6001600160a01b03811661042157604051631e4fbdf760e01b8152600060048201526024015b60405180910390fd5b61042a8161045a565b50565b6000546001600160a01b031633146102955760405163118cdaa760e01b8152336004820152602401610418565b600080546001600160a01b038381166001600160a01b0319831681178455604051919092169283917f8be0079c531659141344cd1fd0a4f28419497f9722a3daafe3b4186f6b6457e09190a35050565b60408051808201909152600080825260208201527f00000000000000000000000000000000000000000000000000000000000000006001600160a01b031663ddc28c586040518060a001604052808863ffffffff16815260200161050d89610696565b8152602001878152602001868152602001851515815250306040518363ffffffff1660e01b8152600401610542929190610ed4565b6040805180830381865afa15801561055e573d6000803e3d6000fd5b505050506040513d601f19601f820116820180604052508101906105829190610f9c565b95945050505050565b6105936109d6565b60006105a284600001516106d8565b6020850151909150156105bc576105bc8460200151610700565b7f00000000000000000000000000000000000000000000000000000000000000006001600160a01b0316632637a450826040518060a001604052808b63ffffffff16815260200161060c8c610696565b81526020018a815260200189815260200160008960200151111515815250866040518463ffffffff1660e01b8152600401610648929190610ed4565b60806040518083038185885af1158015610666573d6000803e3d6000fd5b50505050506040513d601f19601f8201168201806040525081019061068b9190610fb8565b979650505050505050565b63ffffffff8116600090815260016020526040812054806106d25760405163f6ff4fb760e01b815263ffffffff84166004820152602401610418565b92915050565b60008134146106fc576040516304fb820960e51b8152346004820152602401610418565b5090565b60007f00000000000000000000000000000000000000000000000000000000000000006001600160a01b031663e4fe1d946040518163ffffffff1660e01b8152600401602060405180830381865afa158015610760573d6000803e3d6000fd5b505050506040513d601f19601f82011682018060405250810190610784919061102a565b90506001600160a01b0381166107ad576040516329b99a9560e11b815260040160405180910390fd5b6107e26001600160a01b038216337f0000000000000000000000000000000000000000000000000000000000000000856107e6565b5050565b604080516001600160a01b0385811660248301528416604482015260648082018490528251808303909101815260849091019091526020810180516001600160e01b03166323b872dd60e01b179052610840908590610846565b50505050565b600061085b6001600160a01b038416836108ae565b9050805160001415801561088057508080602001905181019061087e9190611047565b155b156108a957604051635274afe760e01b81526001600160a01b0384166004820152602401610418565b505050565b60606108bc838360006108c3565b9392505050565b6060814710156108e85760405163cd78605960e01b8152306004820152602401610418565b600080856001600160a01b031684866040516109049190611064565b60006040518083038185875af1925050503d8060008114610941576040519150601f19603f3d011682016040523d82523d6000602084013e610946565b606091505b50915091506102db86838360608261096657610961826109ad565b6108bc565b815115801561097d57506001600160a01b0384163b155b156109a657604051639996b31560e01b81526001600160a01b0385166004820152602401610418565b50806108bc565b8051156109bd5780518082602001fd5b604051630a12f52160e11b815260040160405180910390fd5b604051806060016040528060008019168152602001600067ffffffffffffffff168152602001610a19604051806040016040528060008152602001600081525090565b905290565b803563ffffffff81168114610a3257600080fd5b919050565b60008060408385031215610a4a57600080fd5b610a5383610a1e565b946020939093013593505050565b60006101608284031215610a7457600080fd5b50919050565b634e487b7160e01b600052604160045260246000fd5b604051601f8201601f1916810167ffffffffffffffff81118282101715610ab957610ab9610a7a565b604052919050565b801515811461042a57600080fd5b8035610a3281610ac1565b60008060008060808587031215610af057600080fd5b610af985610a1e565b935060208086013567ffffffffffffffff80821115610b1757600080fd5b610b2389838a01610a61565b95506040880135915080821115610b3957600080fd5b818801915088601f830112610b4d57600080fd5b813581811115610b5f57610b5f610a7a565b610b71601f8201601f19168501610a90565b91508082528984828501011115610b8757600080fd5b8084840185840137600084828401015250809450505050610baa60608601610acf565b905092959194509250565b8151815260208083015190820152604081016106d2565b600060208284031215610bde57600080fd5b6108bc82610a1e565b6001600160a01b038116811461042a57600080fd5b8035610a3281610be7565b600060208284031215610c1957600080fd5b81356108bc81610be7565b60008060008060608587031215610c3a57600080fd5b610c4385610a1e565b9350602085013567ffffffffffffffff80821115610c6057600080fd5b610c6c88838901610a61565b94506040870135915080821115610c8257600080fd5b818701915087601f830112610c9657600080fd5b813581811115610ca557600080fd5b886020828501011115610cb757600080fd5b95989497505060200194505050565b60006080820190508251825267ffffffffffffffff60208401511660208301526040830151610d02604084018280518252602090810151910152565b5092915050565b6000808335601e19843603018112610d2057600080fd5b830160208101925035905067ffffffffffffffff811115610d4057600080fd5b803603821315610d4f57600080fd5b9250929050565b81835281816020850137506000828201602090810191909152601f909101601f19169091010190565b60208152610da060208201610d9384610bfc565b6001600160a01b03169052565b602082013560408201526000610db96040840184610d09565b610160806060860152610dd161018086018385610d56565b9250610de06060870187610d09565b9250601f1980878603016080880152610dfa858584610d56565b9450608088013560a088015260a088013560c088015260c088013560e0880152610100935060e08801358488015261012091508388013582880152610e4182890189610d09565b94509150610140818887030181890152610e5c868685610d56565b9550610e6a818a018a610d09565b95509250508087860301838801525061068b848483610d56565b60005b83811015610e9f578181015183820152602001610e87565b50506000910152565b60008151808452610ec0816020860160208601610e84565b601f01601f19169290920160200192915050565b6040815263ffffffff8351166040820152602083015160608201526000604084015160a06080840152610f0a60e0840182610ea8565b90506060850151603f198483030160a0850152610f278282610ea8565b60809690960151151560c08501525050506001600160a01b039190911660209091015290565b600060408284031215610f5f57600080fd5b6040516040810181811067ffffffffffffffff82111715610f8257610f82610a7a565b604052825181526020928301519281019290925250919050565b600060408284031215610fae57600080fd5b6108bc8383610f4d565b600060808284031215610fca57600080fd5b6040516060810167ffffffffffffffff8282108183111715610fee57610fee610a7a565b816040528451835260208501519150808216821461100b57600080fd5b50602082015261101e8460408501610f4d565b60408201529392505050565b60006020828403121561103c57600080fd5b81516108bc81610be7565b60006020828403121561105957600080fd5b81516108bc81610ac1565b60008251611076818460208701610e84565b919091019291505056fea26469706673582212204bfc78de938e1ed00b7842e325e1cef18d3902addcea6fe550a89cf68999751964736f6c63430008160033",
  "devdoc": {
    "errors": {
      "AddressEmptyCode(address)": [
        {
          "details": "There's no code at `target` (it is not a contract)."
        }
      ],
      "AddressInsufficientBalance(address)": [
        {
          "details": "The ETH balance of the account is not enough to perform the operation."
        }
      ],
      "FailedInnerCall()": [
        {
          "details": "A call to an address target failed. The target may have reverted."
        }
      ],
      "OwnableInvalidOwner(address)": [
        {
          "details": "The owner is not a valid owner account. (eg. `address(0)`)"
        }
      ],
      "OwnableUnauthorizedAccount(address)": [
        {
          "details": "The caller account is not authorized to perform an operation."
        }
      ],
      "SafeERC20FailedOperation(address)": [
        {
          "details": "An operation with an ERC20 token failed."
        }
      ]
    },
    "kind": "dev",
    "methods": {
      "castVote(uint32,(address,uint256,bytes,bytes,uint256,uint256,uint256,uint256,uint256,bytes,bytes),bytes)": {
        "details": "Encodes the message as bytes and sends it using the `_lzSend` internal function.",
        "params": {
          "_dstEid": "The endpoint ID of the destination chain.",
          "_options": "Additional options for message execution.",
          "_userOperation": "The user operation for voting on the destinaion chain"
        },
        "returns": {
          "receipt": "A `MessagingReceipt` struct containing details of the message sent."
        }
      },
      "oAppVersion()": {
        "details": "Providing 0 as the default for OAppReceiver version. Indicates that the OAppReceiver is not implemented. ie. this is a SEND only OApp.If the OApp uses both OAppSender and OAppReceiver, then this needs to be override returning the correct versions",
        "returns": {
          "receiverVersion": "The version of the OAppReceiver.sol contract.",
          "senderVersion": "The version of the OAppSender.sol contract."
        }
      },
      "owner()": {
        "details": "Returns the address of the current owner."
      },
      "quote(uint32,(address,uint256,bytes,bytes,uint256,uint256,uint256,uint256,uint256,bytes,bytes),bytes,bool)": {
        "params": {
          "_dstEid": "Destination chain's endpoint ID.",
          "_options": "Message execution options (e.g., for sending gas to destination).",
          "_payInLzToken": "Whether to return fee in ZRO token.",
          "_userOperation": "The user operation for voting on the destinaion chain"
        },
        "returns": {
          "fee": "A `MessagingFee` struct containing the calculated gas fee in either the native token or ZRO token."
        }
      },
      "renounceOwnership()": {
        "details": "Leaves the contract without owner. It will not be possible to call `onlyOwner` functions. Can only be called by the current owner. NOTE: Renouncing ownership will leave the contract without an owner, thereby disabling any functionality that is only available to the owner."
      },
      "setDelegate(address)": {
        "details": "Only the owner/admin of the OApp can call this function.Provides the ability for a delegate to set configs, on behalf of the OApp, directly on the Endpoint contract.",
        "params": {
          "_delegate": "The address of the delegate to be set."
        }
      },
      "setPeer(uint32,bytes32)": {
        "details": "Only the owner/admin of the OApp can call this function.Indicates that the peer is trusted to send LayerZero messages to this OApp.Set this to bytes32(0) to remove the peer address.Peer is a bytes32 to accommodate non-evm chains.",
        "params": {
          "_eid": "The endpoint ID.",
          "_peer": "The address of the peer to be associated with the corresponding endpoint."
        }
      },
      "transferOwnership(address)": {
        "details": "Transfers ownership of the contract to a new account (`newOwner`). Can only be called by the current owner."
      }
    },
    "version": 1
  },
  "userdoc": {
    "kind": "user",
    "methods": {
      "castVote(uint32,(address,uint256,bytes,bytes,uint256,uint256,uint256,uint256,uint256,bytes,bytes),bytes)": {
        "notice": "Sends a message from the source chain to a destination chain."
      },
      "endpoint()": {
        "notice": "Retrieves the LayerZero endpoint associated with the OApp."
      },
      "oAppVersion()": {
        "notice": "Retrieves the OApp version information."
      },
      "peers(uint32)": {
        "notice": "Retrieves the peer (OApp) associated with a corresponding endpoint."
      },
      "quote(uint32,(address,uint256,bytes,bytes,uint256,uint256,uint256,uint256,uint256,bytes,bytes),bytes,bool)": {
        "notice": "Quotes the gas needed to pay for the full omnichain transaction in native gas or ZRO token."
      },
      "setDelegate(address)": {
        "notice": "Sets the delegate address for the OApp."
      },
      "setPeer(uint32,bytes32)": {
        "notice": "Sets the peer address (OApp instance) for a corresponding endpoint."
      }
    },
    "version": 1
  },
  "storageLayout": {
    "storage": [
      {
        "astId": 1297,
        "contract": "contracts/SourceVoterOApp.sol:SourceVoterOApp",
        "label": "_owner",
        "offset": 0,
        "slot": "0",
        "type": "t_address"
      },
      {
        "astId": 64,
        "contract": "contracts/SourceVoterOApp.sol:SourceVoterOApp",
        "label": "peers",
        "offset": 0,
        "slot": "1",
        "type": "t_mapping(t_uint32,t_bytes32)"
      }
    ],
    "types": {
      "t_address": {
        "encoding": "inplace",
        "label": "address",
        "numberOfBytes": "20"
      },
      "t_bytes32": {
        "encoding": "inplace",
        "label": "bytes32",
        "numberOfBytes": "32"
      },
      "t_mapping(t_uint32,t_bytes32)": {
        "encoding": "mapping",
        "key": "t_uint32",
        "label": "mapping(uint32 => bytes32)",
        "numberOfBytes": "32",
        "value": "t_bytes32"
      },
      "t_uint32": {
        "encoding": "inplace",
        "label": "uint32",
        "numberOfBytes": "4"
      }
    }
  }
}