{
  "address": "0x6E4DeF79780469D19E052bC96D8eEd153E0B0477",
  "abi": [
    {
      "inputs": [
        {
          "internalType": "address",
          "name": "_endpoint",
          "type": "address"
        },
        {
          "internalType": "address",
          "name": "_delegate",
          "type": "address"
        },
        {
          "internalType": "address",
          "name": "_entryPoint",
          "type": "address"
        }
      ],
      "stateMutability": "nonpayable",
      "type": "constructor"
    },
    {
      "inputs": [],
      "name": "InvalidDelegate",
      "type": "error"
    },
    {
      "inputs": [],
      "name": "InvalidEndpointCall",
      "type": "error"
    },
    {
      "inputs": [
        {
          "internalType": "uint32",
          "name": "eid",
          "type": "uint32"
        }
      ],
      "name": "NoPeer",
      "type": "error"
    },
    {
      "inputs": [
        {
          "internalType": "address",
          "name": "addr",
          "type": "address"
        }
      ],
      "name": "OnlyEndpoint",
      "type": "error"
    },
    {
      "inputs": [
        {
          "internalType": "uint32",
          "name": "eid",
          "type": "uint32"
        },
        {
          "internalType": "bytes32",
          "name": "sender",
          "type": "bytes32"
        }
      ],
      "name": "OnlyPeer",
      "type": "error"
    },
    {
      "inputs": [
        {
          "internalType": "address",
          "name": "owner",
          "type": "address"
        }
      ],
      "name": "OwnableInvalidOwner",
      "type": "error"
    },
    {
      "inputs": [
        {
          "internalType": "address",
          "name": "account",
          "type": "address"
        }
      ],
      "name": "OwnableUnauthorizedAccount",
      "type": "error"
    },
    {
      "anonymous": false,
      "inputs": [
        {
          "indexed": true,
          "internalType": "address",
          "name": "previousOwner",
          "type": "address"
        },
        {
          "indexed": true,
          "internalType": "address",
          "name": "newOwner",
          "type": "address"
        }
      ],
      "name": "OwnershipTransferred",
      "type": "event"
    },
    {
      "anonymous": false,
      "inputs": [
        {
          "indexed": false,
          "internalType": "uint32",
          "name": "eid",
          "type": "uint32"
        },
        {
          "indexed": false,
          "internalType": "bytes32",
          "name": "peer",
          "type": "bytes32"
        }
      ],
      "name": "PeerSet",
      "type": "event"
    },
    {
      "anonymous": false,
      "inputs": [],
      "name": "VoteSuccessful",
      "type": "event"
    },
    {
      "inputs": [
        {
          "components": [
            {
              "internalType": "uint32",
              "name": "srcEid",
              "type": "uint32"
            },
            {
              "internalType": "bytes32",
              "name": "sender",
              "type": "bytes32"
            },
            {
              "internalType": "uint64",
              "name": "nonce",
              "type": "uint64"
            }
          ],
          "internalType": "struct Origin",
          "name": "origin",
          "type": "tuple"
        }
      ],
      "name": "allowInitializePath",
      "outputs": [
        {
          "internalType": "bool",
          "name": "",
          "type": "bool"
        }
      ],
      "stateMutability": "view",
      "type": "function"
    },
    {
      "inputs": [],
      "name": "composeMsgSender",
      "outputs": [
        {
          "internalType": "address",
          "name": "sender",
          "type": "address"
        }
      ],
      "stateMutability": "view",
      "type": "function"
    },
    {
      "inputs": [],
      "name": "endpoint",
      "outputs": [
        {
          "internalType": "contract ILayerZeroEndpointV2",
          "name": "",
          "type": "address"
        }
      ],
      "stateMutability": "view",
      "type": "function"
    },
    {
      "inputs": [
        {
          "components": [
            {
              "internalType": "uint32",
              "name": "srcEid",
              "type": "uint32"
            },
            {
              "internalType": "bytes32",
              "name": "sender",
              "type": "bytes32"
            },
            {
              "internalType": "uint64",
              "name": "nonce",
              "type": "uint64"
            }
          ],
          "internalType": "struct Origin",
          "name": "_origin",
          "type": "tuple"
        },
        {
          "internalType": "bytes32",
          "name": "_guid",
          "type": "bytes32"
        },
        {
          "internalType": "bytes",
          "name": "_message",
          "type": "bytes"
        },
        {
          "internalType": "address",
          "name": "_executor",
          "type": "address"
        },
        {
          "internalType": "bytes",
          "name": "_extraData",
          "type": "bytes"
        }
      ],
      "name": "lzReceive",
      "outputs": [],
      "stateMutability": "payable",
      "type": "function"
    },
    {
      "inputs": [
        {
          "internalType": "uint32",
          "name": "",
          "type": "uint32"
        },
        {
          "internalType": "bytes32",
          "name": "",
          "type": "bytes32"
        }
      ],
      "name": "nextNonce",
      "outputs": [
        {
          "internalType": "uint64",
          "name": "nonce",
          "type": "uint64"
        }
      ],
      "stateMutability": "view",
      "type": "function"
    },
    {
      "inputs": [],
      "name": "oAppVersion",
      "outputs": [
        {
          "internalType": "uint64",
          "name": "senderVersion",
          "type": "uint64"
        },
        {
          "internalType": "uint64",
          "name": "receiverVersion",
          "type": "uint64"
        }
      ],
      "stateMutability": "view",
      "type": "function"
    },
    {
      "inputs": [],
      "name": "owner",
      "outputs": [
        {
          "internalType": "address",
          "name": "",
          "type": "address"
        }
      ],
      "stateMutability": "view",
      "type": "function"
    },
    {
      "inputs": [
        {
          "internalType": "uint32",
          "name": "eid",
          "type": "uint32"
        }
      ],
      "name": "peers",
      "outputs": [
        {
          "internalType": "bytes32",
          "name": "peer",
          "type": "bytes32"
        }
      ],
      "stateMutability": "view",
      "type": "function"
    },
    {
      "inputs": [],
      "name": "renounceOwnership",
      "outputs": [],
      "stateMutability": "nonpayable",
      "type": "function"
    },
    {
      "inputs": [
        {
          "internalType": "address",
          "name": "_delegate",
          "type": "address"
        }
      ],
      "name": "setDelegate",
      "outputs": [],
      "stateMutability": "nonpayable",
      "type": "function"
    },
    {
      "inputs": [
        {
          "internalType": "uint32",
          "name": "_eid",
          "type": "uint32"
        },
        {
          "internalType": "bytes32",
          "name": "_peer",
          "type": "bytes32"
        }
      ],
      "name": "setPeer",
      "outputs": [],
      "stateMutability": "nonpayable",
      "type": "function"
    },
    {
      "inputs": [
        {
          "internalType": "address",
          "name": "newOwner",
          "type": "address"
        }
      ],
      "name": "transferOwnership",
      "outputs": [],
      "stateMutability": "nonpayable",
      "type": "function"
    }
  ],
  "transactionHash": "0x063b18b35653d9aec9dca84429401e3ca3d180c3c34f1b66e00f7f6f31d9aaa3",
  "args": [
    "0x1a44076050125825900e736c501f859c50fE728c",
    "0x6E9De1072B71C489ba2dFbfDF82F303EDA2281DC",
    "0x0386EF59454ae5749b2CB592391b1a6a135d9EAb"
  ],
  "numDeployments": 1,
  "solcInputHash": "013b872819f7d0ca460ff33eebd20b41",
  "bytecode": "0x60a060405234801561001057600080fd5b50604051610db4380380610db483398101604081905261002f9161018d565b8282806001600160a01b03811661006057604051631e4fbdf760e01b81526000600482015260240160405180910390fd5b61006981610121565b506001600160a01b03808316608052811661009757604051632d618d8160e21b815260040160405180910390fd5b60805160405163ca5eb5e160e01b81526001600160a01b0383811660048301529091169063ca5eb5e190602401600060405180830381600087803b1580156100de57600080fd5b505af11580156100f2573d6000803e3d6000fd5b5050600280546001600160a01b0319166001600160a01b039690961695909517909455506101d0945050505050565b600080546001600160a01b038381166001600160a01b0319831681178455604051919092169283917f8be0079c531659141344cd1fd0a4f28419497f9722a3daafe3b4186f6b6457e09190a35050565b80516001600160a01b038116811461018857600080fd5b919050565b6000806000606084860312156101a257600080fd5b6101ab84610171565b92506101b960208501610171565b91506101c760408501610171565b90509250925092565b608051610bbb6101f96000396000818161011a0152818161028301526103d90152610bbb6000f3fe6080604052600436106100a75760003560e01c80638da5cb5b116100645780638da5cb5b146101a5578063b92d0eff146101c3578063bb0b6a53146101d6578063ca5eb5e114610211578063f2fde38b14610231578063ff7bd03d1461025157600080fd5b806313137d65146100ac57806317442b70146100c15780633400288b146100e85780635e280f1114610108578063715018a6146101545780637d25a05e14610169575b600080fd5b6100bf6100ba3660046106f0565b610281565b005b3480156100cd57600080fd5b50604080516000815260016020820152015b60405180910390f35b3480156100f457600080fd5b506100bf6101033660046107a3565b610341565b34801561011457600080fd5b5061013c7f000000000000000000000000000000000000000000000000000000000000000081565b6040516001600160a01b0390911681526020016100df565b34801561016057600080fd5b506100bf61039e565b34801561017557600080fd5b5061018c6101843660046107a3565b600092915050565b60405167ffffffffffffffff90911681526020016100df565b3480156101b157600080fd5b506000546001600160a01b031661013c565b3480156101cf57600080fd5b503061013c565b3480156101e257600080fd5b506102036101f13660046107cd565b60016020526000908152604090205481565b6040519081526020016100df565b34801561021d57600080fd5b506100bf61022c3660046107ef565b6103b2565b34801561023d57600080fd5b506100bf61024c3660046107ef565b610438565b34801561025d57600080fd5b5061027161026c36600461080a565b610476565b60405190151581526020016100df565b7f00000000000000000000000000000000000000000000000000000000000000006001600160a01b031633146102d1576040516391ac5e4f60e01b81523360048201526024015b60405180910390fd5b602087018035906102eb906102e6908a6107cd565b6104ac565b14610329576102fd60208801886107cd565b60405163309afaf360e21b815263ffffffff9091166004820152602088013560248201526044016102c8565b610338878787878787876104ee565b50505050505050565b6103496105f6565b63ffffffff8216600081815260016020908152604091829020849055815192835282018390527f238399d427b947898edb290f5ff0f9109849b1c3ba196a42e35f00c50a54b98b910160405180910390a15050565b6103a66105f6565b6103b06000610623565b565b6103ba6105f6565b60405163ca5eb5e160e01b81526001600160a01b0382811660048301527f0000000000000000000000000000000000000000000000000000000000000000169063ca5eb5e190602401600060405180830381600087803b15801561041d57600080fd5b505af1158015610431573d6000803e3d6000fd5b5050505050565b6104406105f6565b6001600160a01b03811661046a57604051631e4fbdf760e01b8152600060048201526024016102c8565b61047381610623565b50565b600060208201803590600190839061048e90866107cd565b63ffffffff1681526020810191909152604001600020541492915050565b63ffffffff8116600090815260016020526040812054806104e85760405163f6ff4fb760e01b815263ffffffff841660048201526024016102c8565b92915050565b60006104fc858701876108f3565b80516040519192506000916307eb652360e21b9161051f91859190602401610a72565b60408051601f198184030181529181526020820180516001600160e01b03166001600160e01b03199094169390931790925260025491519092506000916001600160a01b031690610571908490610b69565b6000604051808303816000865af19150503d80600081146105ae576040519150601f19603f3d011682016040523d82523d6000602084013e6105b3565b606091505b50509050806105c157600080fd5b6040517faffa5a2cf73f8e1e16f448d89ac1a4fa8546b946ade0d47e578cbafbe20cad4790600090a150505050505050505050565b6000546001600160a01b031633146103b05760405163118cdaa760e01b81523360048201526024016102c8565b600080546001600160a01b038381166001600160a01b0319831681178455604051919092169283917f8be0079c531659141344cd1fd0a4f28419497f9722a3daafe3b4186f6b6457e09190a35050565b60006060828403121561068557600080fd5b50919050565b60008083601f84011261069d57600080fd5b50813567ffffffffffffffff8111156106b557600080fd5b6020830191508360208285010111156106cd57600080fd5b9250929050565b80356001600160a01b03811681146106eb57600080fd5b919050565b600080600080600080600060e0888a03121561070b57600080fd5b6107158989610673565b965060608801359550608088013567ffffffffffffffff8082111561073957600080fd5b6107458b838c0161068b565b909750955085915061075960a08b016106d4565b945060c08a013591508082111561076f57600080fd5b5061077c8a828b0161068b565b989b979a50959850939692959293505050565b803563ffffffff811681146106eb57600080fd5b600080604083850312156107b657600080fd5b6107bf8361078f565b946020939093013593505050565b6000602082840312156107df57600080fd5b6107e88261078f565b9392505050565b60006020828403121561080157600080fd5b6107e8826106d4565b60006060828403121561081c57600080fd5b6107e88383610673565b634e487b7160e01b600052604160045260246000fd5b604051610160810167ffffffffffffffff8111828210171561086057610860610826565b60405290565b600082601f83011261087757600080fd5b813567ffffffffffffffff8082111561089257610892610826565b604051601f8301601f19908116603f011681019082821181831017156108ba576108ba610826565b816040528381528660208588010111156108d357600080fd5b836020870160208301376000602085830101528094505050505092915050565b60006020828403121561090557600080fd5b813567ffffffffffffffff8082111561091d57600080fd5b90830190610160828603121561093257600080fd5b61093a61083c565b610943836106d4565b81526020830135602082015260408301358281111561096157600080fd5b61096d87828601610866565b60408301525060608301358281111561098557600080fd5b61099187828601610866565b6060830152506080830135608082015260a083013560a082015260c083013560c082015260e083013560e082015261010080840135818301525061012080840135838111156109df57600080fd5b6109eb88828701610866565b8284015250506101408084013583811115610a0557600080fd5b610a1188828701610866565b918301919091525095945050505050565b60005b83811015610a3d578181015183820152602001610a25565b50506000910152565b60008151808452610a5e816020860160208601610a22565b601f01601f19169290920160200192915050565b60408152610a8c6040820184516001600160a01b03169052565b6020830151606082015260006040840151610160806080850152610ab46101a0850183610a46565b91506060860151603f19808685030160a0870152610ad28483610a46565b9350608088015160c087015260a088015160e087015260c08801519150610100828188015260e089015192506101208381890152818a0151935061014091508382890152808a0151935050818786030184880152610b308584610a46565b94508089015193505080868503016101808701525050610b508282610a46565b925050506107e860208301846001600160a01b03169052565b60008251610b7b818460208701610a22565b919091019291505056fea264697066735822122045f92110078f7b1b2bdb4cd0991268113aee123a2e122cc0735f56b77922d8e164736f6c63430008160033",
  "devdoc": {
    "errors": {
      "OwnableInvalidOwner(address)": [
        {
          "details": "The owner is not a valid owner account. (eg. `address(0)`)"
        }
      ],
      "OwnableUnauthorizedAccount(address)": [
        {
          "details": "The caller account is not authorized to perform an operation."
        }
      ]
    },
    "kind": "dev",
    "methods": {
      "allowInitializePath((uint32,bytes32,uint64))": {
        "details": "This indicates to the endpoint that the OApp has enabled msgs for this particular path to be received.This defaults to assuming if a peer has been set, its initialized. Can be overridden by the OApp if there is other logic to determine this.",
        "params": {
          "origin": "The origin information containing the source endpoint and sender address."
        },
        "returns": {
          "_0": "Whether the path has been initialized."
        }
      },
      "composeMsgSender()": {
        "details": "Applications can optionally choose to implement a separate composeMsg sender that is NOT the bridging layer.The default sender IS the OApp implementer.",
        "returns": {
          "sender": "The address responsible for 'sending' composeMsg's to the Endpoint."
        }
      },
      "lzReceive((uint32,bytes32,uint64),bytes32,bytes,address,bytes)": {
        "details": "Entry point for receiving messages or packets from the endpoint.Entry point for receiving msg/packet from the LayerZero endpoint.",
        "params": {
          "_executor": "The address of the executor for the received message.",
          "_extraData": "Additional arbitrary data provided by the corresponding executor.",
          "_guid": "The unique identifier for the received LayerZero message.",
          "_message": "The payload of the received message.",
          "_origin": "The origin information containing the source endpoint and sender address.  - srcEid: The source chain endpoint ID.  - sender: The sender address on the src chain.  - nonce: The nonce of the message."
        }
      },
      "nextNonce(uint32,bytes32)": {
        "details": "_srcEid The source endpoint ID._sender The sender address.The path nonce starts from 1. If 0 is returned it means that there is NO nonce ordered enforcement.Is required by the off-chain executor to determine the OApp expects msg execution is ordered.This is also enforced by the OApp.By default this is NOT enabled. ie. nextNonce is hardcoded to return 0.",
        "returns": {
          "nonce": "The next nonce."
        }
      },
      "oAppVersion()": {
        "details": "Providing 0 as the default for OAppSender version. Indicates that the OAppSender is not implemented. ie. this is a RECEIVE only OApp.If the OApp uses both OAppSender and OAppReceiver, then this needs to be override returning the correct versions.",
        "returns": {
          "receiverVersion": "The version of the OAppReceiver.sol contract.",
          "senderVersion": "The version of the OAppSender.sol contract."
        }
      },
      "owner()": {
        "details": "Returns the address of the current owner."
      },
      "renounceOwnership()": {
        "details": "Leaves the contract without owner. It will not be possible to call `onlyOwner` functions. Can only be called by the current owner. NOTE: Renouncing ownership will leave the contract without an owner, thereby disabling any functionality that is only available to the owner."
      },
      "setDelegate(address)": {
        "details": "Only the owner/admin of the OApp can call this function.Provides the ability for a delegate to set configs, on behalf of the OApp, directly on the Endpoint contract.",
        "params": {
          "_delegate": "The address of the delegate to be set."
        }
      },
      "setPeer(uint32,bytes32)": {
        "details": "Only the owner/admin of the OApp can call this function.Indicates that the peer is trusted to send LayerZero messages to this OApp.Set this to bytes32(0) to remove the peer address.Peer is a bytes32 to accommodate non-evm chains.",
        "params": {
          "_eid": "The endpoint ID.",
          "_peer": "The address of the peer to be associated with the corresponding endpoint."
        }
      },
      "transferOwnership(address)": {
        "details": "Transfers ownership of the contract to a new account (`newOwner`). Can only be called by the current owner."
      }
    },
    "version": 1
  },
  "userdoc": {
    "kind": "user",
    "methods": {
      "allowInitializePath((uint32,bytes32,uint64))": {
        "notice": "Checks if the path initialization is allowed based on the provided origin."
      },
      "composeMsgSender()": {
        "notice": "Retrieves the address responsible for 'sending' composeMsg's to the Endpoint."
      },
      "endpoint()": {
        "notice": "Retrieves the LayerZero endpoint associated with the OApp."
      },
      "nextNonce(uint32,bytes32)": {
        "notice": "Retrieves the next nonce for a given source endpoint and sender address."
      },
      "oAppVersion()": {
        "notice": "Retrieves the OApp version information."
      },
      "peers(uint32)": {
        "notice": "Retrieves the peer (OApp) associated with a corresponding endpoint."
      },
      "setDelegate(address)": {
        "notice": "Sets the delegate address for the OApp."
      },
      "setPeer(uint32,bytes32)": {
        "notice": "Sets the peer address (OApp instance) for a corresponding endpoint."
      }
    },
    "version": 1
  },
  "storageLayout": {
    "storage": [
      {
        "astId": 1297,
        "contract": "contracts/DestinationVoterOApp.sol:DestinationVoterOApp",
        "label": "_owner",
        "offset": 0,
        "slot": "0",
        "type": "t_address"
      },
      {
        "astId": 64,
        "contract": "contracts/DestinationVoterOApp.sol:DestinationVoterOApp",
        "label": "peers",
        "offset": 0,
        "slot": "1",
        "type": "t_mapping(t_uint32,t_bytes32)"
      },
      {
        "astId": 2142,
        "contract": "contracts/DestinationVoterOApp.sol:DestinationVoterOApp",
        "label": "entryPoint",
        "offset": 0,
        "slot": "2",
        "type": "t_address"
      }
    ],
    "types": {
      "t_address": {
        "encoding": "inplace",
        "label": "address",
        "numberOfBytes": "20"
      },
      "t_bytes32": {
        "encoding": "inplace",
        "label": "bytes32",
        "numberOfBytes": "32"
      },
      "t_mapping(t_uint32,t_bytes32)": {
        "encoding": "mapping",
        "key": "t_uint32",
        "label": "mapping(uint32 => bytes32)",
        "numberOfBytes": "32",
        "value": "t_bytes32"
      },
      "t_uint32": {
        "encoding": "inplace",
        "label": "uint32",
        "numberOfBytes": "4"
      }
    }
  }
}